:1000000012C019C017C016C015C014C013C012C04A
:1000100011C010C00FC00EC00DC00CC00BC00AC074
:1000200009C008C007C011241FBECFE5D4E0DEBF61
:10003000CDBFC6C0E5CF1FB6EAECF0E078E10CC05A
:1000400030E13A95F1F040B34470D9F70000000078
:10005000000000000000000024D0000040B30000B9
:10006000447041937A9539F035E13A9551F040B3B7
:100070004470D9F3E5CFEAECF0E0909A909876805E
:100080001EC03FE0371B41F4EAECF0E031963081CE
:10009000332309F00FC009C033941FBE30E43ABFC8
:1000A000189533E03A95F1F70895E0E6F0E078E14D
:1000B00050D0F2CFE9E7F0E070E54BD0EDCFE2EEC3
:1000C000F0E0339631E030E13421319330E43421F3
:1000D000319330E43521319330E83421319330E8E5
:1000E00035213193319330E23521319330E135219F
:1000F000319330E23421319338E03421319334E0CC
:100100003421319331E03421319332E03421319381
:10011000E2EEF0E0882061F03FEF30A331A332A39C
:1001200033A334A335A336A337A33FEF30A309C0CD
:100130003FEF30A301A202A203A204A205A206A2DD
:1001400037A3772019F070E504D0A6CF70E401D072
:10015000A3CF31913323C9F400008A9A4FE04A9526
:10016000F1F700008A9842E04A95F1F77A9589F70D
:100170000000000000000000000000008A9A44E037
:100180004A95F1F700008A9808958A9A44E04A95C2
:10019000F1F7000000008A984CE04A95F1F7000062
:1001A00000007A95B1F60000000000000000000099
:1001B00000008A9A44E04A95F1F700008A98089571
:1001C00000240FEE05BB00E304BB0FEF08BB00E00B
:1001D00007BB0AEF02BB01E001BB02E005BF00E480
:1001E0000BBFB89AC098B998BA98C19AC29A000041
:1001F0000000000002E026B220942022B2D07CD081
:1002000087D0C8D0882478943320F1F33324222077
:1002100009F00EC038D0052D0073003339F4042DD9
:100220000272023219F40FEF802E16C0882414C017
:1002300016D0052D00780038C9F7042D027A023A4D
:1002400019F40FEF802E08C08824042D087A083A8C
:1002500019F4052D0063502E3BD03324D5CF1F93C6
:1002600000E305BB31D030D000E205BB2DD019D062
:1002700000E80223502E022F0074000F2F73202B52
:10028000422E1F9108951F9300E305BB1DD01CD083
:1002900000E205BB19D005D0422E03D0522E1F918B
:1002A000089518E02227220F00E005BB03B3009554
:1002B0000870069506950695202B06D000E205BB32
:1002C00003D01A9581F708950EE10A95F1F7089584
:1002D0001F9317E60FEF0000000000000000000071
:1002E000000000000A95B9F70000000000000000BF
:1002F0001A9581F71F91089531E0E0E6F0E0349619
:100300003083339630833B9630833696308308951E
:1003100031E0E9E7F0E0389630833896308336965E
:1003200031933083329631933193319330833296C7
:1003300030833296308337963083329631933193BF
:1003400031933193319330833596308332963193A4
:100350003083359630833396319330837196308372
:1003600008954427E0E6F0E039E141933A95E9F752
:10037000E9E7F0E031E541933A95E9F7E2E2F1E0AF
:1003800030E141933A95E9F7E2E2F1E00FEF0783BC
:1003900007870895E2EEF0E0C9E7D0E000E4499174
:0C03A00041930A95E1F741E04193089574
:00000001FF
