:1000000012C01AC018C017C016C015C014C013C043
:1000100012C011C010C00FC00EC00DC00CC00BC06C
:100020000AC009C008C011241FBECFE5D4E0DEBF5E
:10003000CDBFC7D0D1C1E4CF1FB6E0E6F1E078E193
:100040000CC030E13A95F1F040B34470D9F70000AC
:100050000000000000000000000024D0000040B3B9
:100060000000447041937A9539F035E13A9551F0AA
:1000700040B34470D9F3E5CFE0E6F1E0909A909870
:1000800076801EC03FE0371B41F4E0E6F1E0319698
:100090003081332309F00FC009C033941FBE30E410
:1000A0003ABF189533E03A95F1F70895E8EFF0E09C
:1000B00078E150D0F2CFE0E1F1E070E54BD0EDCF48
:1000C000E8E7F1E0339631E030E13921319330E473
:1000D0003921319330E43A21319330E83921319399
:1000E00030E83A213193319330E23A21319330E1D3
:1000F0003A21319330E23921319338E0392131937B
:1001000034E03921319331E03921319332E0392122
:100110003193E8E7F1E0882061F03FEF30A331A3AD
:1001200032A333A334A335A336A337A33FEF30A3C1
:1001300009C03FEF30A301A202A203A204A205A2BC
:1001400006A237A3772019F070E504D0A6CF70E49B
:1001500001D0A3CF31913323C9F400008A9A4FE034
:100160004A95F1F700008A9842E04A95F1F77A95AE
:1001700089F70000000000000000000000008A9ADB
:1001800044E04A95F1F700008A9808958A9A44E07D
:100190004A95F1F7000000008A984CE04A95F1F783
:1001A000000000007A95B1F6000000000000000099
:1001B000000000008A9A44E04A95F1F700008A980E
:1001C000089500240FEE05BB00E304BB0FEF08BB4E
:1001D00000E007BB0AEF02BB01E001BB02E005BF84
:1001E00000E40BBFB89AC098B998BA98C19AC29A5D
:1001F00000000000000002E026B22094202249D036
:10020000042D007111F002E0202EC3D08FD09AD0BF
:10021000D9D0882478943320F1F3222009F00EC03D
:100220004CD0052D0073003369F5042D02720232A3
:1002300049F50FEF802E9924AA241DC02AD0052D40
:1002400000780038F9F4042D027A023A29F40FEF0D
:10025000802E9924AA2408C08824042D087A083AFC
:1002600099F400E39924A02E4DD013D04420E1F757
:100270005520D1F707C046D020D04420A9F75520FB
:1002800099F700C0882400C0942CA52C3BD03324BF
:10029000C2CF1F9300E305BB31D030D000E205BBD5
:1002A0002DD019D000E80223502E022F0074000F29
:1002B0002F73202B422E1F9108951F9300E305BB3F
:1002C0001DD01CD000E205BB19D005D0422E03D0B2
:1002D000522E1F91089518E02227220F00E005BB3F
:1002E00003B300950870069506950695202B06D059
:1002F00000E205BB03D01A9581F708950EE10A9537
:10030000F1F708951F9317E60FEF000000000000BB
:1003100000000000000000000A95B9F7000000008E
:10032000000000001A9581F71F91089531E0E8EF71
:10033000F0E034963083339630833B9630833696A4
:100340003083089531E0E0E1F1E03896308338966B
:100350003083369631933083329631933193319393
:10036000308332963083329630833796308332969C
:100370003193319331933193319330833596308378
:100380003296319330833596308333963193308370
:1003900008954427E8EFF0E038E141933A95E9F712
:1003A000E0E1F1E030E541933A95E9F7E8EBF1E07F
:1003B00030E141933A95E9F7E8EBF1E00FEF07837D
:1003C00007870895E8E7F1E0C0E1D1E000E4499152
:0C03D00041930A95E1F70895F894FFCFDF
:1003DC00536E6573325769692076657273696F6EF7
:1003EC0020312E322C2028432920323030372D3228
:1003FC00303038205261706861656C2041737365D0
:10040C006E6174203C7261706840726170686E65D8
:10041C00742E6E65743E52656C65617365642075EF
:10042C006E646572207468652047504C2E205365AD
:10043C006520687474703A2F2F7777772E726170FD
:10044C00686E65742E6E65742F656C656374726F5F
:10045C006E697175652F78327769692F696E64657D
:08046C00785F656E2E70687068
:00000001FF
