:1000000012C019C017C016C015C014C013C012C04A
:1000100011C010C00FC00EC00DC00CC00BC00AC074
:1000200009C008C007C011241FBECFE5D4E0DEBF61
:10003000CDBF8DC0E5CF1FB6E0E6F0E078E10CC0A3
:1000400035E13A95D9F040B34470D9F7000000008B
:1000500000000000000000001FD0909A40B390986C
:10006000447041937A9539F035E13A9539F040B3CF
:100070004470D9F3E5CFE0E6F0E01CC03FE0371B69
:1000800041F4E0E6F0E031963081332309F00DC011
:1000900007C033941FBE189533E03A95F1F70895E1
:1000A000E9EBF0E079E134D0F4CFE2EDF0E071E596
:1000B0002FD0EFCFE8E7F0E0339631E030E13421A4
:1000C000319330E43421319330E43521319330E8F9
:1000D0003421319330E835213193319330E23521A9
:1000E000319330E13521319330E23421319338E0DE
:1000F0003421319334E03421319331E03421319390
:1001000032E034213193E8E7F0E071E401D0C1CF6F
:100110003191332369F400008A9A4FE04A95F1F750
:1001200000008A9842E04A95F1F77A9589F7089598
:100130008A9A44E04A95F1F7000000008A984CE062
:100140004A95F1F7000000007A9511F70895002410
:100150000FEE05BB00E304BB0FEF08BB00E007BBDD
:100160000AEF02BB01E001BB02E005BF00E40BBFE8
:10017000B89AC098B998BA98C19AC29A000000007B
:10018000000002E026B22094202290D05AD065D000
:100190009BD078943320F1F33324222011F004D043
:1001A00001C016D03AD0F6CF1F9300E305BB31D083
:1001B00030D000E205BB2DD019D000E80223502E2C
:1001C000022F0074000F2F73202B422E1F910895D1
:1001D0001F9300E305BB1DD01CD000E205BB19D066
:1001E00005D0422E03D0522E1F91089518E02227E9
:1001F000220F00E005BB03B3009508700695069535
:100200000695202B06D000E205BB03D01A9581F796
:1002100008950EE10A95F1F708951F9317E60FEF81
:1002200000000000000000000000000000000A952F
:10023000B9F700000000000000001A9581F71F9137
:10024000089531E0E9EBF0E0349630833396308363
:100250003B96308336963083089531E0E2EDF0E04E
:100260003896308338963083369631933083329681
:100270003193319331933083329630833296308389
:100280003796308332963193319331933193319352
:100290003083359630833296319330833596308370
:1002A0003396319330837196308308954427E9EB78
:1002B000F0E039E141933A95E9F7E2EDF0E031E51C
:1002C00041933A95E9F70895E8E7F0E0C2EDD0E010
:1002D00000E4499141930A95E1F741E04193089583
:00000001FF
